S01E00004156525F44726976657273446576656C6F706D656E742E737265635C
S11300000C9431000C944E000C944E000C944E0051
S11300100C9401060C9426060C9492050C94B705D6
S11300200C94DC050C946D050C9448050C94230584
S11300300C944E000C944E000C944E000C944E0004
S11300400C944E000C944E000C944E000C944E00F4
S11300500C944E0042074E07450748074B074207DA
S1130060420711241FBECFE5D8E0DEBFCDBF10E0AC
S1130070A0E6B0E0E0E7F4E102C005900D92A839F3
S1130080B107D9F720E0A8E9B0E001C01D92A73B71
S1130090B207E1F70E948B010C94360A0C9400001D
S11300A0843060F46115710559F0E82FF0E0E856EA
S11300B0FF4F8081FB01808381E0089582E00895F1
S11300C083E008951F93CF93DF931F92CDB7DEB7DC
S11300D0843008F04AC0182F1982BE016F5F7F4F29
S11300E00E949B0389818130F1F405C04F5F5F4F0B
S11300F06F4F7F4F03C040E050E0BA01483B8BE0B4
S113010058076105710590F3BE016F5F7F4F812F22
S11301100E949B038981813051F5E12FF0E0E8567C
S1130120FF4F808327C0882339F081E023C04F5FCD
S11301305F4F6F4F7F4F03C040E050E0BA01483B30
S11301408BE058076105710590F3BE016F5F7F4F27
S1130150812F0E949B03898181110BC0E12FF0E064
S1130160E856FF4F108281E005C082E003C081E0C1
S113017001C081E00F90DF91CF911F9108950F93FB
S11301801F93CF93DF93823008F04CC0653608F09C
S11301904BC0423008F04AC0D62FC82F411115C0B9
S11301A090E08C01000F111F000F111F080F191F81
S11301B008571F4F61E0F80181810E94AA0260E0A4
S11301C0F80182810E94AA0212C0413081F4F5E054
S11301D08F9F8001112408571F4F60E0F80181812F
S11301E00E94AA0261E0F80182810E94AA028C2F77
S11301F090E0FC01E456FF4F21E02083FC01EE0F68
S1130200FF1FEE0FFF1F8E0F9F1FFC01E857FF4FCC
S11302104381548160E070E02D2F80810E94CD06DF
S113022081E005C082E003C083E001C084E0DF9187
S1130230CF911F910F910895EF92FF920F931F9307
S1130240CF93823008F060C0C82F082F10E07801E7
S1130250EE0CFF1CEE0CFF1CC701800F911F9C01CC
S113026028573F4F790160E0F90181810E94AA0279
S113027060E0F70182810E94AA02E0E01CC0EC1752
S1130280C9F0D801AA0FBB1FAA0FBB1FA00FB11F33
S1130290A857BF4F2C918E2F90E0DC01AA0FBB1FF3
S11302A0AA0FBB1F8A0F9B1FDC01A857BF4F8C915D
S11302B0281719F0EF5FE23010F3E23069F4F80127
S11302C0EE0FFF1FEE0FFF1FE00FF11FE857FF4F68
S11302D080810E94C70712C0F0E0E456FF4F80817E
S11302E081110CC0F801EE0FFF1FEE0FFF1FE00F8E
S11302F0F11FE857FF4F80810E94C707F801E456B9
S1130300FF4F108281E001C082E0CF911F910F91D5
S1130310FF90EF900895CF93DF931F92CDB7DEB790
S11303200E946B0480E690E00E94BC018FB7806855
S11303308FBF198261E080E00E94AA0281E00E94DE
S11303406200BE016F5F7F4F81E00E94500089818F
S1130350813049F440E06CE380E00E94BF0081E01A
S11303600E941C01EBCF40E06CE381E00E94BF00DF
S113037080E00E941C01E2CFAC01892B09F4E4C0A7
S113038090E0D7C0E92FF0E0EE0FFF1FEE0FFF1F44
S1130390E40FF51F3181383008F0D8C020812130B6
S11303A0C1F138F0223009F464C0233009F491C05B
S11303B0CFC02AB361E070E0DB0102C0AA0FBB1F0B
S11303C03A95E2F78A2F809582238ABBAAB3828169
S11303D0282F30E0018002C0220F331F0A94E2F775
S11303E02A2B2ABB8BB3018002C0660F771F0A94A5
S11303F0E2F7609568236BBB6BB38381282F30E0F1
S1130400018002C0220F331F0A94E2F7262B2BBB74
S11304108FC027B361E070E0DB0102C0AA0FBB1FED
S11304203A95E2F78A2F8095822387BBA7B382810E
S1130430282F30E0018002C0220F331F0A94E2F714
S11304402A2B27BB88B3018002C0660F771F0A944A
S1130450E2F76095682368BB68B38381282F30E096
S1130460018002C0220F331F0A94E2F7262B28BB17
S11304705FC024B361E070E0DB0102C0AA0FBB1FC0
S11304803A95E2F78A2F8095822384BBA4B38281B4
S1130490282F30E0018002C0220F331F0A94E2F7B4
S11304A02A2B24BB85B3018002C0660F771F0A94F0
S11304B0E2F76095682365BB65B38381282F30E03C
S11304C0018002C0220F331F0A94E2F7262B25BBBA
S11304D02FC021B361E070E0DB0102C0AA0FBB1F93
S11304E03A95E2F78A2F8095822381BBA1B382815A
S11304F0282F30E0018002C0220F331F0A94E2F754
S11305002A2B21BB82B3018002C0660F771F0A9495
S1130510E2F76095682362BB62B38381282F30E0E1
S1130520018002C0220F331F0A94E2F7262B22BB5C
S11305309F5F9A3008F426CF5093A00040939F0009
S113054081E080939E00089585E0089583E00895F6
S113055084E008958B3008F090C090919E00992318
S113056009F48DC0E82FF0E0CF01880F991F880FA0
S1130570991FE0919F00F091A000E80FF91F80817E
S1130580813021F130F08230F1F1833009F458C028
S113059078C0613069F42BB381E090E0018002C03F
S11305A0880F991F0A94E2F7822B8BBB81E0089590
S11305B02BB381E090E0018002C0880F991F0A9458
S11305C0E2F7809582238BBB81E00895613069F462
S11305D028B381E090E0018002C0880F991F0A943B
S11305E0E2F7822B88BB81E0089528B381E090E094
S11305F0018002C0880F991F0A94E2F78095822334
S113060088BB81E00895613069F425B381E090E00E
S1130610018002C0880F991F0A94E2F7822B85BBE0
S113062081E0089525B381E090E0018002C0880F45
S1130630991F0A94E2F78095822385BB81E008958F
S1130640613069F422B381E090E0018002C0880F38
S1130650991F0A94E2F7822B82BB81E0089522B3AA
S113066081E090E0018002C0880F991F0A94E2F7AC
S11306708095822382BB81E0089582E0089586E01C
S1130680089584E008958B3008F04FC090919E0047
S1130690992309F44CC0E82FF0E0CF01880F991F8B
S11306A0880F991FE0919F00F091A000E80FF91FB7
S11306B08081813099F028F08230E9F0833041F173
S11306C038C02BB381E090E0018002C0880F991FED
S11306D00A94E2F782278BBB81E0089528B381E076
S11306E090E0018002C0880F991F0A94E2F78227E4
S11306F088BB81E0089525B381E090E0018002C0C9
S1130700880F991F0A94E2F7822785BB81E0089538
S113071022B381E090E0018002C0880F991F0A94FF
S1130720E2F7822782BB81E0089582E0089586E0A3
S1130730089584E008958B3008F07CC090919E0069
S1130740992309F479C0E82FF0E0CF01880F991FAD
S1130750880F991FE0919F00F091A000E80FF91F06
S113076080818130F9F030F08230A1F1833009F4D6
S113077049C064C049B3518181E090E09C01052ED9
S113078002C0220F331F0A94E2F7842F90E08223E1
S1130790932302C0959587955A95E2F7FB018083D0
S11307A081E0089546B3518181E090E09C01052EDB
S11307B002C0220F331F0A94E2F7842F90E08223B1
S11307C0932302C0959587955A95E2F7FB018083A0
S11307D081E0089543B3518181E090E09C01052EAE
S11307E002C0220F331F0A94E2F7842F90E0822381
S11307F0932302C0959587955A95E2F7FB01808370
S113080081E0089540B3518181E090E09C01052E80
S113081002C0220F331F0A94E2F7842F90E0822350
S1130820932302C0959587955A95E2F7FB0180833F
S113083081E0089582E0089586E0089584E00895B3
S113084090E00EC0292F30E0F901EE0FFF1F2E0FAC
S11308503F1FF901EE56FF4F2081281719F09F5FC3
S1130860992381F3892F90E0FC01EE0FFF1FEE0F17
S1130870FF1FEF55FF4F4081518162817381411504
S113088051056105710581F0880F991F880F991F23
S1130890FC01EF55FF4F4150510961097109408333
S11308A0518362837383089523B72E7F23BF23B7B5
S11308B02D7F23BF23B72B7F23BF29B72E7F29BFCB
S11308C0FC01EB55FF4F24E02083E091A600F0915A
S11308D0A7000995089520E024C0822F90E0FC0130
S11308E0EE0FFF1FE80FF91FEE56FF4F3081332341
S11308F019F03330D0F40FC0FC01EE0FFF1FE80FE6
S1130900F91FEE56FF4F3281311105C013BE39B7BE
S11309103C7F39BF12BEFC01EB55FF4F31E0308301
S11309202F5F2223D1F281E0089584E008950F938C
S11309301F93CF93DF93890181114AC0C82FD0E060
S1130940FE01EB55FF4F8081882309F443C08230B8
S113095009F442C082E0FE01EB55FF4F8083FE01A3
S1130960EE0FFF1FEC0FFD1FEE56FF4F8081882313
S113097021F0833098F184E034C0CB01BA012FEF29
S113098030E040E050E00E940E0AFE01EE0FFF1F2F
S1130990EE0FFF1FEF55FF4F2083318342835383B4
S11309A0262F372F89B7816089BF1093A700009342
S11309B0A600CE01880F991FC80FD91FCE56DF4F4E
S11309C0898183BF232B61F0619562BF81E009C0F7
S11309D085E007C082E005C086E003C081E001C075
S11309E081E0DF91CF911F910F910895811123C070
S11309F090E0FC01EB55FF4F20812223F1F02230DF
S1130A00F1F4FC01EE0FFF1FE80FF91FEE56FF4F44
S1130A102081222319F02330A0F406C023B7287FB5
S1130A2023BF29B72C7F29BFFC01EB55FF4F23E0DF
S1130A30208381E0089585E0089582E0089587E0A9
S1130A40089584E008951F920F920FB60F92112417
S1130A502F933F934F935F936F937F938F939F93C2
S1130A60AF93BF93EF93FF9380E00E942004FF9124
S1130A70EF91BF91AF919F918F917F916F915F9112
S1130A804F913F912F910F900FBE0F901F9018958B
S1130A901F920F920FB60F9211242F933F934F93EF
S1130AA05F936F937F938F939F93AF93BF93EF93D2
S1130AB0FF9380E00E942004FF91EF91BF91AF91DA
S1130AC09F918F917F916F915F914F913F912F9162
S1130AD00F900FBE0F901F9018951F920F920FB694
S1130AE00F9211242F933F934F935F936F937F93B0
S1130AF08F939F93AF93BF93EF93FF9381E00E94F3
S1130B002004FF91EF91BF91AF919F918F917F91BD
S1130B106F915F914F913F912F910F900FBE0F9066
S1130B201F9018951F920F920FB60F9211242F93B6
S1130B303F934F935F936F937F938F939F93AF9361
S1130B40BF93EF93FF9381E00E942004FF91EF9104
S1130B50BF91AF919F918F917F916F915F914F91D1
S1130B603F912F910F900FBE0F901F9018951F92D9
S1130B700F920FB60F9211242F933F934F935F93CD
S1130B806F937F938F939F93AF93BF93EF93FF9351
S1130B9081E00E942004FF91EF91BF91AF919F915A
S1130BA08F917F916F915F914F913F912F910F9012
S1130BB00FBE0F901F9018951F920F920FB60F92B1
S1130BC011242F933F934F935F936F937F938F934E
S1130BD09F93AF93BF93EF93FF9381E00E94200410
S1130BE0FF91EF91BF91AF919F918F917F916F9101
S1130BF05F914F913F912F910F900FBE0F901F90D7
S1130C0018951F920F920FB60F9211242F933F93B2
S1130C104F935F936F937F938F939F93AF93BF9300
S1130C20EF93FF9382E00E942004FF91EF91BF9124
S1130C30AF919F918F917F916F915F914F913F9170
S1130C402F910F900FBE0F901F9018951F920F9227
S1130C500FB60F9211242F933F934F935F936F938B
S1130C607F938F939F93AF93BF93EF93FF9382E010
S1130C700E942004FF91EF91BF91AF919F918F91BA
S1130C807F916F915F914F913F912F910F900FBE84
S1130C900F901F9018950F931F93E091A800F0E018
S1130CA0EE0FFF1FEB56FF4F80810E94430380919C
S1130CB0A80090E09C01220F331FF901EE0FFF1FE3
S1130CC0EE0FFF1FEE0FFF1FE21BF30BE755FF4F65
S1130CD02585223009F05EC0880F991FFC01EE0FB4
S1130CE0FF1FEE0FFF1FEE0FFF1FE81BF90BE75569
S1130CF0FF4F4185528563857485FC01EB56FF4F98
S1130D002BE436E081810E9497048091A80090E052
S1130D109C01220F331FF901EE0FFF1FEE0FFF1F7F
S1130D20EE0FFF1FE21BF30BE755FF4F0185128502
S1130D30238534854581568167817085041715079D
S1130D4026073707B1F4880F991FFC01EE0FFF1F28
S1130D50EE0FFF1FEE0FFF1FE81BF90BE755FF4FC8
S1130D6081819281A381B48181879287A387B4878B
S1130D7011C0880F991FFC01EE0FFF1FEE0FFF1F1C
S1130D80EE0FFF1FE81BF90BE755FF4F4187528712
S1130D90638774871F910F9108954F925F926F92AA
S1130DA07F928F929F92AF92BF92EF92FF920F9396
S1130DB01F93CF93DF9300D000D000D0CDB7DEB720
S1130DC08111C9C0253608F0C8C0222309F4C7C060
S1130DD02983E82E243661F4E82FF0E0EE0FFF1F9C
S1130DE0EB56FF4F61E080810E94AA0281E0BAC005
S1130DF0CB01BA010E9413099B01AC0160E070E0D1
S1130E0080E89FE30E9472084B015C012981622FF4
S1130E1070E080E090E00E941509A50194010E9411
S1130E20A10920E030E048EC52E40E9472082B0152
S1130E303C019B01AC01C501B4010E940508698312
S1130E407A838B839C830E2D10E0F801EE0FFF1F35
S1130E50EB56FF4FF1808F2D90E0FC01EE0FFF1F4A
S1130E608E0F9F1FFC01EE56FF4FE1818E2F90E005
S1130E70FC013197E730F10508F073C0E65DFF4FE0
S1130E800C94300A61E070E00BC060E470E008C0CC
S1130E9060E071E005C060E074E002C068E070E00A
S1130EA080E090E00E94130920E034E244E759E432
S1130EB00E9472084B015C01E092A8009B01AC0106
S1130EC0C301B2010E947208000F111FF801EE0F56
S1130ED0FF1FEE0FFF1FEE0FFF1FE01BF10BE75587
S1130EE0FF4FFE83ED830E94E408ED81FE81618360
S1130EF0728383839483A501940169817A818B81B0
S1130F009C810E9472080E94E408ED81FE81658341
S1130F10768387839087E082F801EB56FF4F8081C8
S1130F200E944303ED81FE8141815281638174817A
S1130F302BE436E08F2D0E949704ED81FE8185819C
S1130F409681A781B08581879287A387B48782E041
S1130F50858781E007C083E005C084E003C081E0A9
S1130F6001C080E026960FB6F894DEBF0FBECDBF59
S1130F70DF91CF911F910F91FF90EF90BF90AF90B1
S1130F809F908F907F906F905F904F9008950F93F4
S1130F901F93CF93DF93811130C090E09C01220F07
S1130FA0331FF901EE0FFF1FEE0FFF1FEE0FFF1FA0
S1130FB0E21BF30BE755FF4F2585223001F5EC01C9
S1130FC0CC0FDD1F8E010B561F4F60E0F8018081AE
S1130FD00E94AA02FE01EE0FFF1FEE0FFF1FEE0F8D
S1130FE0FF1FEC1BFD0BE755FF4F83E08587F801DE
S1130FF081810E94F60481E003C083E001C085E0A2
S1131000DF91CF911F910F9108955058BB27AA27C4
S11310100E941D080C9467090E94590938F00E9427
S1131020600920F039F49F3F19F426F40C94560912
S11310300EF4E095E7FB0C945009E92F0E9478091F
S113104058F3BA17620773078407950720F079F4F9
S1131050A6F50C949A090EF4E0950B2EBA2FA02D48
S11310600B01B90190010C01CA01A0011124FF2751
S1131070591B99F0593F50F4503E68F11A16F0404C
S1131080A22F232F342F4427585FF3CF469537954B
S11310902795A795F0405395C9F77EF41F16BA0B10
S11310A0620B730B840BBAF09150A1F0FF0FBB1FBE
S11310B0661F771F881FC2F70EC0BA0F621F731F07
S11310C0841F48F4879577956795B795F7959E3F64
S11310D008F0B0CF9395880F08F09927EE0F9795F5
S11310E0879508950E9486080C9467090E946009F8
S11310F058F00E94590940F029F45F3F29F00C94FC
S1131100500951110C949B090C9456090E947809BA
S113111068F39923B1F3552391F3951B550BBB2722
S1131120AA2762177307840738F09F5F5F4F220F67
S1131130331F441FAA1FA9F335D00E2E3AF0E0E85E
S113114032D091505040E695001CCAF72BD0FE2FA8
S113115029D0660F771F881FBB1F2617370748073C
S1131160AB07B0E809F0BB0B802DBF01FF279358F4
S11311705F4F3AF09E3F510578F00C9450090C945F
S11311809B095F3FE4F3983ED4F386957795679582
S1131190B795F7959F5FC9F7880F911D9695879529
S11311A097F90895E1E0660F771F881FBB1F621748
S11311B073078407BA0720F0621B730B840BBA0B06
S11311C0EE1F88F7E09508950E94800988F09F57E4
S11311D098F0B92F9927B751B0F0E1F0660F771F57
S11311E0881F991F1AF0BA95C9F714C0B13091F04D
S11311F00E949A09B1E008950C949A09672F782FF8
S11312008827B85F39F0B93FCCF386957795679511
S1131210B395D9F73EF490958095709561957F4F7D
S11312208F4F9F4F0895E89409C097FB3EF4909523
S11312308095709561957F4F8F4F9F4F9923A9F0AB
S1131240F92F96E9BB279395F6958795779567953A
S1131250B795F111F8CFFAF4BB0F11F460FF1BC07E
S11312606F5F7F4F8F4F9F4F16C0882311F096E911
S113127011C0772321F09EE8872F762F05C06623BF
S113128071F096E8862F70E060E02AF09A95660F78
S1131290771F881FDAF7880F9695879597F9089531
S11312A097F99F6780E870E060E008959FEF80EC15
S11312B0089500240A9416161706180609060895B8
S11312C000240A9412161306140605060895092E1E
S11312D00394000C11F4882352F0BB0F40F4BF2B8D
S11312E011F460FF04C06F5F7F4F8F4F9F4F0895CD
S11312F057FD9058440F551F59F05F3F71F04795C3
S1131300880F97FB991F61F09F3F79F087950895A7
S1131310121613061406551FF2CF4695F1DF08C0C6
S1131320161617061806991FF1CF869571056105E3
S113133008940895E894BB2766277727CB0197F98B
S113134008950E94B4090C9467090E94590938F061
S11313500E94600920F0952311F00C9450090C941C
S1131360560911240C949B090E94780970F3959FE7
S1131370C1F3950F50E0551F629FF001729FBB2788
S1131380F00DB11D639FAA27F00DB11DAA1F649F24
S11313906627B00DA11D661F829F2227B00DA11DD7
S11313A0621F739FB00DA11D621F839FA00D611D5D
S11313B0221F749F3327A00D611D231F849F600D7E
S11313C0211D822F762F6A2F11249F5750409AF0A7
S11313D0F1F088234AF0EE0FFF1FBB1F661F771F33
S11313E0881F91505040A9F79E3F510580F00C94FE
S11313F050090C949B095F3FE4F3983ED4F386951F
S113140077956795B795F795E7959F5FC1F7FE2B9D
S1131410880F911D9695879597F90895A1E21A2E44
S1131420AA1BBB1BFD010DC0AA1FBB1FEE1FFF1F84
S1131430A217B307E407F50720F0A21BB30BE40BD4
S1131440F50B661F771F881F991F1A9469F760951B
S11314507095809590959B01AC01BD01CF010895D5
S1131460EE0FFF1F0590F491E02D0994F894FFCF3F
S11314700305010003000000030100000302000053
S1131480030300000107010001060100010501003A
S113149001040100030601000005066400000708BA
S10B14A06400000200090000D1
S9030000FC
