:100000000C942A000C9447000C9447000C94470071
:100010000C9409060C942E060C949A050C94BF05BA
:100020000C94E4050C9475050C9450050C942B0568
:100030000C9453060C9400070C9427070C94D906D3
:100040000C9447000C9447000C9447000C94470014
:100050000C94470011241FBECFE5D8E0DEBFCDBF12
:1000600010E0A0E6B0E0EAEFFEE002C005900D92DD
:10007000A23CB107D9F721E0A2ECB0E001C01D928B
:10008000A63DB207E1F70E9413020C947B070C9483
:10009000000080916000853071F086E790E00E945A
:1000A000D402813011F0873029F485E0809360001C
:1000B00081E0089580E00895AF92BF92CF92DF92E1
:1000C000EF92FF920F931F93CF93DF931F92CDB7C1
:1000D000DEB77C0190916000953009F050C0E114CA
:1000E000F10409F44EC081E0898300E043C0A02EF2
:1000F000B12CF501EF58FF4F60E080810E94C203F0
:10010000813009F040C010E029C0C12ED12CF60189
:10011000E359FF4FBE016F5F7F4F80810E945B04F8
:10012000813099F58981811118C061E0F501EF589E
:10013000FF4F80810E94C203813049F5C601880FBC
:10014000991F8C0D9D1D8F599F4FFC01EA0DFB1DC2
:100150008081F701808386E01DC01F5F1430A8F204
:10016000F501EF58FF4F61E080810E94C2038130AA
:1001700081F40F5F033008F4BACF87E00BC084E04E
:1001800009C083E007C080E005C080E003C080E0D4
:1001900001C080E00F90DF91CF911F910F91FF90F0
:1001A000EF90DF90CF90BF90AF900895CF93C82F7E
:1001B00080FF05C061E08AE00E94C20304C060E0E5
:1001C0008AE00E94C203C1FF05C061E08BE00E948B
:1001D000C20304C060E08BE00E94C203C2FF05C0FE
:1001E00061E08CE00E94C20304C060E08CE00E94E9
:1001F000C203C3FF05C061E08DE00E94C20304C0DA
:1002000060E08DE00E94C203CF91089561E089E033
:100210000E94C20321E030E040E050E060E070E086
:1002200080E090E00E94440260E089E00E94C20306
:100230000895CF93C82F60E087E00E94C2038C2FFF
:1002400082958F700E94D6000E9406018C2F8F70BD
:100250000E94D6000E94060181E0CF91089580910E
:100260007400863059F186E790E00E94D402813014
:1002700011F0873011F560E087E00E94C20360E072
:1002800089E00E94C20383E30E94190182E30E9475
:10029000190188E20E94190188E00E94190181E099
:1002A0000E94190186E00E9419018CE00E94190148
:1002B00086E08093740081E0089580E00895909135
:1002C0007400963089F4833088F4613188F4282FE3
:1002D00030E02E5F3F4F862F90E4299F800D112440
:1002E0000E94190181E0089585E0089583E0089552
:1002F00082E00895CF93909174009630A1F4C82FB6
:1003000061E087E00E94C2038C2F82958F700E946B
:10031000D6000E9406018C2F8F700E94D6000E948A
:10032000060181E001C085E0CF910895CF93DF936E
:10033000EC0180917400863049F403C021960E943C
:100340007A0188818111FACF81E001C085E0DF91D7
:10035000CF910895CF93DF93C091C300D0E00E9466
:10036000D706CC53DF4F88839091C300E92FF0E08C
:10037000EC53FF4F80818D3071F40E949006E09124
:10038000C300F0E0EC53FF4F10821092C30081E0F5
:100390008093C20015C0883051F4992341F00E9427
:1003A00090068091C30081508093C30009C08830BB
:1003B00039F00E9490068091C3008F5F8093C30044
:1003C000DF91CF91089580917500833081F00E9474
:1003D0007A06813011F0873049F48AEA91E00E9470
:1003E000C20683E08093750081E0089580E008955F
:1003F000CF93DF93009781F020917500223079F040
:10040000EC010E944E07682F70E0CE010E949B060F
:10041000813021F020E003C024E001C021E0822FE0
:10042000DF91CF910895CF93DF9300D0CDB7DEB7A2
:100430000E9449000E94E3010E942F011A82198242
:10044000CE0101960E945C00863099F4CE0101969F
:100450000E94F80160E081E00E945F0189810E94B2
:100460007A0160E080E00E945F018EEA90E00E94E5
:10047000960128EC30E040E050E060E070E080E081
:1004800090E00E944402DCCF2F923F924F925F9205
:100490006F927F928F929F92AF92BF92CF92DF9294
:1004A000EF92FF920F931F93CF93DF9300D000D072
:1004B0001F92CDB7DEB7222E332E442E552E662E38
:1004C00079838A839B83912C1D821C82B0E0F0E0AB
:1004D000E0E0712C812C3DC02C2D3D2D4E2D5F2D4B
:1004E000602F712F8A2D9B2DA1E00E945A07C22EEA
:1004F000D32EE42EF52E062F172FA82EB92E08C0C6
:10050000C12CD12CE12CF12C00E010E0A12CB12C5D
:100510002C2D3D2D4E2D5F2D602F712F8A2D9B2D63
:10052000ACE00E946F07C1F2B8F28C81292D3D81A9
:10053000482F5B2F6F2F7E2F872D982DA1E00E94D3
:100540005A07922E3D834C83B52FF62FE72F782E36
:10055000892E292D3D814C815B2F6F2F7E2F872D7A
:10056000982DA22CB32CC42CD52CE62CF9800A8112
:100570001B810E94660720F20F900F900F900F9042
:100580000F90DF91CF911F910F91FF90EF90DF902F
:10059000CF90BF90AF909F908F907F906F905F9023
:1005A0004F903F902F900895AC01892B09F4E4C03F
:1005B00090E0D7C0E92FF0E0EE0FFF1FEE0FFF1F16
:1005C000E40FF51F3181383008F0D8C02081213088
:1005D000C1F138F0223009F464C0233009F491C02D
:1005E000CFC02AB361E070E0DB0102C0AA0FBB1FDD
:1005F0003A95E2F78A2F809582238ABBAAB382813B
:10060000282F30E0018002C0220F331F0A94E2F746
:100610002A2B2ABB8BB3018002C0660F771F0A9476
:10062000E2F7609568236BBB6BB38381282F30E0C2
:10063000018002C0220F331F0A94E2F7262B2BBB46
:100640008FC027B361E070E0DB0102C0AA0FBB1FBF
:100650003A95E2F78A2F8095822387BBA7B38281E0
:10066000282F30E0018002C0220F331F0A94E2F7E6
:100670002A2B27BB88B3018002C0660F771F0A941C
:10068000E2F76095682368BB68B38381282F30E068
:10069000018002C0220F331F0A94E2F7262B28BBE9
:1006A0005FC024B361E070E0DB0102C0AA0FBB1F92
:1006B0003A95E2F78A2F8095822384BBA4B3828186
:1006C000282F30E0018002C0220F331F0A94E2F786
:1006D0002A2B24BB85B3018002C0660F771F0A94C2
:1006E000E2F76095682365BB65B38381282F30E00E
:1006F000018002C0220F331F0A94E2F7262B25BB8C
:100700002FC021B361E070E0DB0102C0AA0FBB1F64
:100710003A95E2F78A2F8095822381BBA1B382812B
:10072000282F30E0018002C0220F331F0A94E2F725
:100730002A2B21BB82B3018002C0660F771F0A9467
:10074000E2F76095682362BB62B38381282F30E0B3
:10075000018002C0220F331F0A94E2F7262B22BB2E
:100760009F5F9E3008F426CF5093C5014093C4018B
:1007700081E08093C301089585E0089583E00895A2
:1007800084E008958F3008F090C09091C3019923C0
:1007900009F48DC0E82FF0E0CF01880F991F880F72
:1007A000991FE091C401F091C501E80FF91F808104
:1007B000813021F130F08230F1F1833009F458C0FA
:1007C00078C0613069F42BB381E090E0018002C011
:1007D000880F991F0A94E2F7822B8BBB81E0089562
:1007E0002BB381E090E0018002C0880F991F0A942A
:1007F000E2F7809582238BBB81E00895613069F434
:1008000028B381E090E0018002C0880F991F0A940C
:10081000E2F7822B88BB81E0089528B381E090E065
:10082000018002C0880F991F0A94E2F78095822305
:1008300088BB81E00895613069F425B381E090E0E0
:10084000018002C0880F991F0A94E2F7822B85BBB2
:1008500081E0089525B381E090E0018002C0880F17
:10086000991F0A94E2F78095822385BB81E0089561
:10087000613069F422B381E090E0018002C0880F0A
:10088000991F0A94E2F7822B82BB81E0089522B37C
:1008900081E090E0018002C0880F991F0A94E2F77E
:1008A0008095822382BB81E0089582E0089586E0EE
:1008B000089584E008958F3008F07CC09091C301C2
:1008C000992309F479C0E82FF0E0CF01880F991F30
:1008D000880F991FE091C401F091C501E80FF91F3D
:1008E00080818130F9F030F08230A1F1833009F459
:1008F00049C064C049B3518181E090E09C01052E5C
:1009000002C0220F331F0A94E2F7842F90E0822363
:10091000932302C0959587955A95E2F7FB01808352
:1009200081E0089546B3518181E090E09C01052E5D
:1009300002C0220F331F0A94E2F7842F90E0822333
:10094000932302C0959587955A95E2F7FB01808322
:1009500081E0089543B3518181E090E09C01052E30
:1009600002C0220F331F0A94E2F7842F90E0822303
:10097000932302C0959587955A95E2F7FB018083F2
:1009800081E0089540B3518181E090E09C01052E03
:1009900002C0220F331F0A94E2F7842F90E08223D3
:1009A000932302C0959587955A95E2F7FB018083C2
:1009B00081E0089582E0089586E0089584E0089536
:1009C00090E00EC0292F30E0F901EE0FFF1F2E0F2F
:1009D0003F1FF901E254FF4F2081281719F09F5F54
:1009E000992381F3892F90E0FC01EE0FFF1FEE0F9A
:1009F000FF1FEA53FE4F408151816281738141158F
:100A000051056105710581F0880F991F880F991FA5
:100A1000FC01EA53FE4F41505109610971094083BD
:100A2000518362837383089523B72E7F23BF23B737
:100A30002D7F23BF23B72B7F23BF29B72E7F29BF4D
:100A4000FC01E653FE4F24E02083E091CB01F091BE
:100A5000CC01099508951F920F920FB60F921124A1
:100A60002F933F934F935F936F937F938F939F93B6
:100A7000AF93BF93EF93FF9380E00E94E004FF9158
:100A8000EF91BF91AF919F918F917F916F915F9106
:100A90004F913F912F910F900FBE0F901F9018957F
:100AA0001F920F920FB60F9211242F933F934F93E3
:100AB0005F936F937F938F939F93AF93BF93EF93C6
:100AC000FF9380E00E94E004FF91EF91BF91AF910E
:100AD0009F918F917F916F915F914F913F912F9156
:100AE0000F900FBE0F901F9018951F920F920FB688
:100AF0000F9211242F933F934F935F936F937F93A4
:100B00008F939F93AF93BF93EF93FF9381E00E94E6
:100B1000E004FF91EF91BF91AF919F918F917F91F1
:100B20006F915F914F913F912F910F900FBE0F905A
:100B30001F9018951F920F920FB60F9211242F93AA
:100B40003F934F935F936F937F938F939F93AF9355
:100B5000BF93EF93FF9381E00E94E004FF91EF9138
:100B6000BF91AF919F918F917F916F915F914F91C5
:100B70003F912F910F900FBE0F901F9018951F92CD
:100B80000F920FB60F9211242F933F934F935F93C1
:100B90006F937F938F939F93AF93BF93EF93FF9345
:100BA00081E00E94E004FF91EF91BF91AF919F918E
:100BB0008F917F916F915F914F913F912F910F9006
:100BC0000FBE0F901F9018951F920F920FB60F92A5
:100BD00011242F933F934F935F936F937F938F9342
:100BE0009F93AF93BF93EF93FF9381E00E94E00444
:100BF000FF91EF91BF91AF919F918F917F916F91F5
:100C00005F914F913F912F910F900FBE0F901F90CA
:100C100018951F920F920FB60F9211242F933F93A6
:100C20004F935F936F937F938F939F93AF93BF93F4
:100C3000EF93FF9382E00E94E004FF91EF91BF9158
:100C4000AF919F918F917F916F915F914F913F9164
:100C50002F910F900FBE0F901F9018951F920F921B
:100C60000FB60F9211242F933F934F935F936F937F
:100C70007F938F939F93AF93BF93EF93FF9382E004
:100C80000E94E004FF91EF91BF91AF919F918F91EE
:100C90007F916F915F914F913F912F910F900FBE78
:100CA0000F901F9018951F920F920FB60F9211245C
:100CB0002F933F934F935F936F937F938F939F9364
:100CC000AF93BF93EF93FF93E091CD01F091CE01ED
:100CD0000995FF91EF91BF91AF919F918F917F9176
:100CE0006F915F914F913F912F910F900FBE0F9099
:100CF0001F9018958091CF01813081F010BC8CE05D
:100D000089B982E08BB988E18AB980E880BD80B575
:100D1000866880BD81E08093CF01089587E00895C3
:100D20009091CF01992329F05D9BFECF8CB981E092
:100D3000089586E00895EF92FF920F931F93CF934B
:100D4000DF932091CF01222399F08B017C01C0E039
:100D5000D0E009C0F701EC0FFD1F80810E949006D2
:100D6000813041F42196C017D107A0F381E003C080
:100D700086E001C080E0DF91CF911F910F91FF903D
:100D8000EF9008959C019091CF01992361F0211576
:100D9000310559F08AB180688AB93093D301209324
:100DA000D20181E0089586E0089585E008958CB130
:100DB00008951F920F920FB60F9211242F933F9315
:100DC0004F935F936F937F938F939F93AF93BF9353
:100DD000EF93FF93E091D401F091D5010995FF9134
:100DE000EF91BF91AF919F918F917F916F915F91A3
:100DF0004F913F912F910F900FBE0F901F9018951C
:100E00001F920F920FB60F9211242F933F934F937F
:100E10005F936F937F938F939F93AF93BF93EF9362
:100E2000FF93E091D201F091D3010995FF91EF91E9
:100E3000BF91AF919F918F917F916F915F914F91F2
:100E40003F912F910F900FBE0F901F9018951F92FA
:100E50000F920FB60F9211242F933F934F935F93EE
:100E60006F937F938F939F93AF93BF93EF93FF9372
:100E7000E091D001F091D1010995FF91EF91BF91DF
:100E8000AF919F918F917F916F915F914F913F9122
:100E90002F910F900FBE0F901F901895AC0180E01E
:100EA00001C08F5FFA01E80FF11D20812111F9CFF8
:100EB0008F5F08950024A7FD00942A0F301D401D68
:100EC000501D601D701D801D901D08952A153B0545
:100ED0004C055D056E057F05800791070895002488
:100EE000A7FD00942A1730054005500560057005E0
:0A0EF000800590050895F894FFCFE7
:100EFA00043132333435363738392A30230304057E
:100F0A0006000102050200010101000201010003BD
:100F1A0001010004000100050001000600010007AC
:100F2A000001020501000206010002070100030494
:100F3A0001000305010003060100030701004B65D8
:100F4A007970616420466565646261636B000002C2
:020F5A00000095
:00000001FF
